:0700160000000000000000E3
:0206FA008F1758
:1006FC0078187C007D007BFF7A0079167E007F03E2
:10070C0012021E7518A58517197B007A0079187DC1
:04071C000302067955
:1003E400E4F50CF50BF50AF509F510F50FF50EF526
:1003F4000DF511F51278137C00FD7BFF7A00791955
:10040400FE7F0412021E7F807E257D007C00120682
:10041400CC7F451206FAE53960FCE4F511F512E5E6
:100424003D2404FFE433FEC3E5129FEE6480F874B8
:100434008098500E743A2512F8E62511F51105122C
:1004440080DD743A2512F8E665117054E53EAD3F3F
:10045400FCE41200CBE4FBFA79C878421200298F3D
:100464000C8E0B8D0A8C09E53EF513E53FF514E57A
:1004740040AD41FCE41200CBE4FBFA79C8784212A7
:1004840000298F108E0F8D0E8C0DE540F515E5417A
:10049400F5167B007A007913751B457D021204AAB8
:0604A400E4F53902041A20
:10072000013800012E00092F000000000000000029
:0107300000C8
:0300130002000DDB
:01000D0032C0
:0300230002054C87
:10054C00C0E0C0F0C083C082C0D075D000C000C075
:0D055C0001C002C003C004C005C006C007F6
:10056900750800309905C29975430030985BAF2E24
:10057900052E742F2FF8A699C298E52F645A6003A7
:10058900752E00E52EB40209E530645A6003752E14
:1005990000E52ED394034031E5322405FFE433FE10
:1005A900E52EB50724E4B50620E53124BB7017E52F
:1005B900397013783A7C00FDFB7A00792FFE7F09A8
:0905C90012021E753901752E00A5
:1005D200D007D006D005D004D003D002D001D0007D
:0B05E200D0D0D082D083D0F0D0E03227
:10073100014300013900093A0000000000000000F7
:0107410000B7
:1006CC008F1A8E198D188C17759850438920AB1A78
:1006DC00AA19A918A817E47F807E70FDFC120318D4
:0E06EC00EFF404F58DF58B43884043A890226F
:0A000300E54370FC8F99754301225C
:060679008B2A8A2B892C5C
:10067F00E4F52DE52DC39D5043ED14FFE52DC39FEC
:10068F005022AB2AAA2BA92C852D8275830012022A
:10069F0044FFED75830024FFF582E58334FFF58376
:1006AF00EF120271AB2AAA2BA92CAF2D052D8F8229
:0C06BF00758300120244FF12000380B794
:0106CB00220C
:0804AA008B178A1889198D1ABD
:1004B200E4F529FDE51A75F002A42405FFE435F000
:1004C200FE7B007A00791C1203B8AF290529741C3F
:1004D2002FF8765AAF290529741C2FF8765AAF29BE
:1004E2000529741C2FF8A61BE51A25E0FFAE290585
:1004F20029741C2EF8A607E4FDEDC3951A503BABF8
:1005020017AA18A91975F002EDA4F58285F08312D5
:1005120002A4E5F0FFAE290529741C2EF8A6077582
:10052200F002EDA4F58285F0831202A4FFAE290544
:1005320029741C2EF8A6070D80BF7B007A00791C57
:0A054200E51A25E02405FD02067904
:10002600020143EC5D046005E859047003020139DE
:10003600120104580460F6EC4860F2EC7004FDFE10
:10004600FF22C860DB2481C85009C39860025006AD
:100056000201409850CAF582E9294B4A7005AB82E5
:1000660002012F75F0007C1A7880C3EF9BEE9AEDA3
:1000760099400DC3EF9BFFEE9AFEED99FDE842F025
:10008600DC23ACF0D0E0FFD0E0FED0E0FDAB822078
:10009600E7101BEB60BAEC2CFCEF33FFEE33FEED02
:1000A60033FD02011BE803F830E705C0F075F000E8
:1000B600EF2FFFEE33FEED33FD40B830E7C280AAE6
:1000C60075F020800E75F010800575F0087D007EB5
:1000D600007F003392D530D5031203AAEC334010CB
:1000E600EF33FFEE33FEED33FDEC33FCD5F0ED22BE
:0E00F600E5F0247EA2D513CC92E7CDCEFF22FA
:10010400E9D2E7C933E833F892D5EDD2E7CD33EC41
:0701140033FC5002B2D522BA
:10011B00EC30E7100FBF000C0EBE00080DBD000445
:10012B000BEB6014A2D5EB13FCED92E7FD2274FFF1
:10013B00FCFDFEFF22E480F8A2D574FF13FC7D804A
:03014B00E480EF5E
:030000000205ED09
:0C05ED00787FE4F6D8FD758143020634E7
:10014E00E709F608DFFA8046E709F208DFFA803E93
:10015E0088828C83E709F0A3DFFA8032E309F60880
:10016E00DFFA8078E309F208DFFA807088828C83E8
:10017E00E309F0A3DFFA806489828A83E0A3F6089C
:10018E00DFFA805889828A83E0A3F208DFFA804C76
:10019E0080D280FA80C680D4806980F2803380104D
:1001AE0080A680EA809A80A880DA80E280CA8033B6
:1001BE0089828A83ECFAE493A3C8C582C8CCC5832E
:1001CE00CCF0A3C8C582C8CCC583CCDFE9DEE780FE
:1001DE000D89828A83E493A3F608DFF9ECFAA9F07D
:1001EE00EDFB2289828A83ECFAE0A3C8C582C8CCD3
:1001FE00C583CCF0A3C8C582C8CCC583CCDFEADEEC
:10020E00E880DB89828A83E493A3F208DFF980CC4D
:10021E0088F0EF60010E4E60C388F0ED2402B40446
:10022E000050B9F582EB2402B4040050AF232345ED
:06023E00822390019E7373
:10024400BB010CE58229F582E5833AF583E022506F
:1002540006E92582F8E622BBFE06E92582F8E222B9
:0D026400E58229F582E5833AF583E49322D3
:10027100BB010FF8E58229F582E5833AF583E02891
:10028100F0225009C58229F8E58226F622BBFE0933
:10029100C58229F8E22582F222F8EA2583F583E96D
:0302A1009328227D
:1002A400BB0110E58229F582E5833AF583E0F5F098
:1002B400A3E0225009E92582F886F008E622BBFE75
:1002C4000AE92582F8E2F5F008E222E5832AF583BB
:0802D400E993F5F0A3E9932280
:1002DC0075F008758200EF2FFFEE33FECD33CDCCD9
:1002EC0033CCC58233C5829BED9AEC99E58298405C
:1002FC000CF582EE9BFEED9AFDEC99FC0FD5F0D639
:10030C00E4CEFBE4CDFAE4CCF9A88222B800C1B962
:10031C000059BA002DEC8BF084CFCECDFCE5F0CBA0
:10032C00F97818EF2FFFEE33FEED33FDEC33FCEBD9
:10033C0033FB10D703994004EB99FB0FD8E5E4F994
:10034C00FA227818EF2FFFEE33FEED33FDEC33FC81
:10035C00C933C910D7059BE99A4007EC9BFCE99A75
:10036C00F90FD8E0E4C9FAE4CCFB2275F010EF2FBA
:10037C00FFEE33FEED33FDCC33CCC833C810D707BA
:10038C009BEC9AE899400AED9BFDEC9AFCE899F8F5
:0E039C000FD5F0DAE4CDFBE4CCFAE4C8F92288
:0E03AA00C3E49FFFE49EFEE49DFDE49CFC2264
:1003B800EF4E6012EF60010EEDBB010B89828A835C
:1003C800F0A3DFFCDEFA2289F05007F709DFFCA969
:0C03D800F022BBFEFCF309DFFCA9F022C0
:1005F9000203E4E493A3F8E493A34003F68001F231
:1006090008DFF48029E493A3F85407240CC8C33302
:10061900C4540F4420C8834004F456800146F6DFD1
:10062900E4800B0102040810204080900720E47E3A
:10063900019360BCA3FF543F30E509541FFEE493C6
:10064900A360010ECF54C025E060A840B8E493A38D
:10065900FAE493A3F8E493A3C8C582C8CAC583CAB8
:10066900F0A3C8C582C8CAC583CADFE9DEE780BE70
:0107420000B6
:00000001FF
