:100000000C94B5000C94D2000C94D2000C94D20045
:100010000C94D2000C94D2000C94D2000C94D20018
:100020000C94D2000C94D2000C94D2000C94D20008
:100030000C94D2000C94D2000C94D2000C94D200F8
:100040000C94D2000C94D2000C94D2000C94D200E8
:100050000C94D2000C94D2000C94D2000C94D200D8
:100060000C94D2000C94D2006E616E00696E660032
:1000700000407A10F35A00A0724E18090010A5D45F
:10008000E80000E87648170000E40B54020000CABC
:100090009A3B000000E1F505000080969800000002
:1000A00040420F000000A086010000001027000061
:1000B0000000E803000000006400000000000A00E7
:1000C000000000000100000000002C76D888DC67EA
:1000D0004F0823DFC1DFAE59E1B1B796E5E3E45342
:1000E000C63AE651997696E8E6C28426EB898C9B5F
:1000F00062ED407C6FFCEFBC9C9F40F2BAA56FA5FF
:10010000F490055A2AF75C936B6CF9676DC11BFC80
:10011000E0E40D47FEF520E6B500D0ED902E03009B
:10012000943577050080841E080000204E0A0000E8
:1001300000C80C333333330F986E12831141EF8DA7
:100140002114893BE65516CFFEE6DB18D1844B38E7
:100150001BF77C1D901DA4BBE424203284725E2218
:100160008100C9F124ECA1E53D2711241FBECFEF8A
:10017000D8E0DEBFCDBF11E0A0E0B1E0E4EAF3E1FA
:1001800002C005900D92AC31B107D9F711E0ACE196
:10019000B1E001C01D92A832B107E1F70E94480208
:1001A0000C94D0090C9400009093C5008093C40077
:1001B0001092C00088E18093C10086E08093C20065
:1001C0008DE091E09093250180932401089581E6CC
:1001D00084B980E187B98EEF8AB980E388B98CE071
:1001E00090E00E94D40008951F93182F8A3019F4CC
:1001F0008DE00E94F4008091C00085FFFCCF109339
:10020000C60080E090E01F910895982F8091C00073
:1002100085FFFCCF9093C60008950BC020E000003E
:10022000000000000000000000002F5F2A35B9F731
:100230000197009799F70895BC018091B9008E7FCE
:100240008093B9008091B9008D7F8093B90080EDD3
:1002500097E00E94C307603130F0862F90E040970E
:1002600095958795682F6093B80008958EE190E08A
:100270000E941C0108953C9A84EA8093BC00089572
:1002800084E98093BC00089520E030E002C02F5F35
:100290003F4F8091BC0087FD03C026393105B9F777
:1002A00008953C9A8093BB0084E88093BC00089535
:1002B000882329F08091BC008F70806C04C08091ED
:1002C000BC008F7080688093BC0008958091BB0053
:1002D00008958091B900089584E88093BC008091CE
:1002E000BC0087FFFCCF08951F933C9A84EA80935B
:1002F000BC0020E030E002C02F5F3F4F8091BC0087
:1003000087FD03C026393105B9F73C9A1092BB002E
:1003100084E88093BC0020E030E002C02F5F3F4FB4
:100320008091BC0087FD03C026393105B9F73C9A9E
:1003300087E08093BB0084E88093BC0020E030E03D
:1003400002C02F5F3F4F8091BC0087FD03C026395C
:100350003105B9F784E98093BC003C9A84EA809324
:10036000BC0020E030E002C02F5F3F4F8091BC0016
:1003700087FD03C026393105B9F73C9A81E08093A7
:10038000BB0084E88093BC0020E030E002C02F5F17
:100390003F4F8091BC0087FD03C026393105B9F776
:1003A0008FEF0E94580120E030E002C02F5F3F4FE6
:1003B0008091BC0087FD03C026393105B9F7109143
:1003C000BB0020E030E002C02F5F3F4F8091BC00B7
:1003D00087FD03C026393105B9F78FEF0E94580118
:1003E00020E030E002C02F5F3F4F8091BC0087FDCE
:1003F00003C026393105B9F79091BB0020E030E009
:1004000002C02F5F3F4F8091BC0087FD03C026399B
:100410003105B9F784E88093BC008091BC0087FF68
:10042000FCCF84E98093BC00392F20E0812F90E03D
:10043000822B932B909321018093200197FF04C07E
:1004400080E091E00E943D096091200170912101BE
:1004500080E090E00E94D40626E636E646E650E4C8
:100460000E94600720E03FE843E357E40E9405064E
:1004700020E030E048EC52E40E946A0660931C01E0
:1004800070931D0180931E0190931F011F91089589
:10049000CF93DF930E94E7000E94360188EE93E03D
:1004A0000E940D01C6E0D1E0289880E991E00E9409
:1004B0000D010E94740100D000D000D0EDB7FEB74E
:1004C000D283C18380911C0190911D01A0911E01D6
:1004D000B0911F0183839483A583B6830E9428096A
:1004E000289A8DB79EB706960FB6F8949EBF0FBE9A
:1004F0008DBF80E991E00E940D01D6CFA1E1B0E06F
:10050000E4E8F2E00C94D7073C017F876E876A012C
:10051000FC0117821682838181FD03C06FEF7FEF9C
:100520006FC39E012F5F3F4F398B288BF3012381CF
:10053000EE85FF8523FD859123FF8191FF87EE875F
:10054000882309F45AC3853251F4EE85FF8523FDD3
:10055000859123FF8191FF87EE87853229F490E012
:10056000B3010E94FC08E2CF982F10E08824992460
:100570001032B0F49B3269F09C3228F4903251F082
:10058000933271F40BC09D3239F0903349F411600D
:1005900028C01260146025C0186023C0106121C0FB
:1005A00017FD2AC0892F80538A3078F416FF06C0C1
:1005B000FAE09F9E902C1124980E13C03AE0839E7F
:1005C000802C1124880E10620CC09E3221F416FD7E
:1005D00014C3106406C09C3611F4106802C098362B
:1005E00059F4EE85FF8523FD959123FF9191FF87B7
:1005F000EE87992309F0BCCF892F8554833020F4EE
:10060000812F8061905E07C0892F8556833008F066
:100610009FC1812F8F7E86FD02C076E0972E6FE30B
:10062000F62EF822953619F4F0E4FF2A07C0963624
:1006300019F420E8F22A02C091109A94F7FE0AC039
:100640003BE3391518F45CE3B52E02C0B92CB39422
:1006500027E009C047E0491520F4BB2447E0942E69
:10066000F7CF292DBB24C60104969D878C87F60100
:100670006081718182819381AE014F5F5F4F0B2D4D
:100680000E940E086C010981202E332400FF04C053
:1006900003FD02C01DE209C0F1FE02C01BE205C05D
:1006A000F2FC02C010E001C010E2C1018C70907039
:1006B000892BB9F1112311F483E001C084E088157E
:1006C00010F088240AC0881AF3FC07C080E290E08A
:1006D000B3010E94FC088A94C9F7112329F0812FE5
:1006E00090E0B3010E94FC0823FE03C008E610E07E
:1006F0000EC00CE610E00BC0E114F10409F08052CA
:1007000090E0B3010E94FC080F5F1F4F05C0EF2C63
:10071000FF24F0E1EF22FF24F8018491882361F7A0
:1007200014C1F7FE12C0BC0C24FE04C08A818133C0
:1007300009F4BA941B141CF0BB24B3942DC0F8E048
:10074000FB1550F538E0B32E27C0F6FC25C0892DE7
:1007500090E08C159D054CF02CEFC2162FEFD206C1
:1007600024F030E8F32A01C09A94992049F0E2E09D
:10077000F0E0EC0FFD1FE90DF11D80818033A1F346
:10078000F7FE0AC0B92CB394892D90E0C816D9069B
:1007900014F0992401C09C18F7FC03C025E030E058
:1007A00009C01C141D041CF021E030E003C09601B8
:1007B0002F5F3F4F112311F02F5F3F4F992029F0FA
:1007C000892D90E00196280F391F882D90E0281779
:1007D000390714F0882401C0821A4F2C5524C20115
:1007E00089709070892B39F008C080E290E0B301E5
:1007F0000E94FC088A948820C1F7112329F0812FD8
:1008000090E0B3010E94FC0843FE07C008C080E3EB
:1008100090E0B3010E94FC088A948820C1F7F7FE9B
:1008200046C08601D7FE02C000E010E076010894C1
:10083000E11CF11CE01AF10A41E050E04C0F5D1F91
:10084000E40EF51E26014B185108892D90E0AA24CC
:10085000BB24A81AB90A5FEF0F3F150729F48EE2EF
:1008600090E0B3010E94FC08C016D10634F0401697
:1008700051061CF4F701808101C080E30150104053
:100880000894E11CF11C0A151B052CF090E0B30143
:100890000E94FC08E0CF0C151D0539F49A819633AF
:1008A00018F4953311F424FE81E390E04BC08A8163
:1008B000813309F00F7E90E0B3010E94FC0899207B
:1008C000A1F08EE290E0B3010E94FC0812E0E1E0AA
:1008D000F0E0EC0FFD1FE10FF11D1F5F808190E044
:1008E000B3010E94FC089A9491F744FC03C085E68A
:1008F00090E002C085E490E0B3010E94FC08D7FCC0
:1009000005C0C114D10441F404FF06C0D094C194C1
:10091000D108D3948DE201C08BE290E0B3010E9434
:10092000FC0880E305C08F5F26EF3FEFC20ED31EA9
:100930003AE0C316D104BCF790E0B3010E94FC0872
:10094000C601C096B3010E94FC08CC84DD8452C16C
:10095000933631F0933799F0933509F059C023C09D
:10096000F601808189835E010894A11CB11C22E0FC
:1009700030E0C20ED31E21E0E22EF12C12C0F601AF
:10098000A080B18016FD03C06FEF7FEF02C0692D1C
:1009900070E022E030E0C20ED31EC5010E94F108D3
:1009A0007C011F7713C0F601A080B18016FD03C043
:1009B0006FEF7FEF02C0692D70E022E030E0C20EE1
:1009C000D31EC5010E94E6087C01106813FF07C012
:1009D0001BC080E290E0B3010E94FC088A94882D3D
:1009E00090E0E816F906A8F30FC0F50117FD859110
:1009F00017FF81915F0190E0B3010E94FC08811014
:100A00008A940894E108F108E114F10471F7F2C046
:100A1000943611F0993689F517FF08C0F601208148
:100A200031814281538184E090E00AC0F6018081E7
:100A300091819C01442737FD4095542F82E090E03E
:100A4000C80ED91E9FE6F92EF12257FF09C0509516
:100A50004095309521953F4F4F4F5F4F90E8F92AD1
:100A6000CA01B901AE014F5F5F4F2AE030E00E943A
:100A70007209E82EE889EE1A41C0953721F41F7EED
:100A80002AE030E01CC0197F9F3661F0903720F4D7
:100A9000983509F0B2C00FC0903739F0983709F097
:100AA000ACC004C028E030E00AC0106114FD14603E
:100AB00020E130E004C014FD166020E132E017FFB1
:100AC00008C0F601608171818281938144E050E029
:100AD00008C0F60180819181BC0180E090E042E095
:100AE00050E0C40ED51EAE014F5F5F4F0E947209E9
:100AF000E82E5889E51A8FE7F82EF122F6FE0BC092
:100B00008EEFF822E91438F4F4FE07C0F2FC05C0B9
:100B10009FEEF92202C01E2D01C0192DF4FE0DC05A
:100B2000FE01EE0DF11D8081803319F4E9EEFE2205
:100B300008C01F5FF2FE05C003C08F2D867809F044
:100B40001F5F0F2DF3FC14C0F0FE0FC0181510F03E
:100B50009E2C0BC09E2C980C911A182D06C080E27A
:100B600090E0B3010E94FC081F5F1815C0F304C099
:100B7000181510F4811A01C0882404FF0FC080E307
:100B800090E0B3010E94FC0802FF1DC001FD03C0FC
:100B900088E790E00EC088E590E00BC0802F867853
:100BA00091F001FF02C08BE201C080E2F7FC8DE210
:100BB00090E0B3010E94FC0806C080E390E0B3011E
:100BC0000E94FC089A94E914C0F3EA94E1E0F0E092
:100BD000EC0FFD1FEE0DF11D808190E0B3010E942E
:100BE000FC08EE2091F706C080E290E0B3010E947D
:100BF000FC088A948820C1F799CCF301668177813B
:100C0000CB016196E2E10C94F3075058BB27AA2769
:100C10000ED01CC10DD130F012D120F031F49F3F25
:100C200011F41EF402C10EF4E095E7FBF8C0E92FC1
:100C30001ED180F3BA17620773078407950718F06F
:100C400071F49EF536C10EF4E0950B2EBA2FA02D4F
:100C50000B01B90190010C01CA01A0011124FF2769
:100C6000591B99F0593F50F4503E68F11A16F04064
:100C7000A22F232F342F4427585FF3CF4695379563
:100C80002795A795F0405395C9F77EF41F16BA0B28
:100C9000620B730B840BBAF09150A1F0FF0FBB1FD6
:100CA000661F771F881FC2F70EC0BA0F621F731F1F
:100CB000841F48F4879577956795B795F7959E3F7C
:100CC00008F0B3CF9395880F08F09927EE0F97950A
:100CD000879508950CD0BAC0B2D040F0A9D030F0BA
:100CE00021F45F3F19F09BC05111E4C09EC0BFD0FA
:100CF00098F39923C9F35523B1F3951B550BBB27E3
:100D0000AA2762177307840738F09F5F5F4F220F8F
:100D1000331F441FAA1FA9F333D00E2E3AF0E0E888
:100D200030D091505040E695001CCAF729D0FE2FD4
:100D300027D0660F771F881FBB1F26173707480766
:100D4000AB07B0E809F0BB0B802DBF01FF2793581C
:100D50005F4F2AF09E3F510568F061C0ABC05F3F16
:100D6000ECF3983EDCF3869577956795B795F79504
:100D70009F5FC9F7880F911D9695879597F90895FC
:100D8000E1E0660F771F881FBB1F62177307840798
:100D9000BA0720F0621B730B840BBA0BEE1F88F7A7
:100DA000E0950895E89409C097FB3EF490958095EE
:100DB000709561957F4F8F4F9F4F9923A9F0F92F21
:100DC00096E9BB279395F695879577956795B7959F
:100DD000F111F8CFFAF4BB0F11F460FF1BC06F5F85
:100DE0007F4F8F4F9F4F16C0882311F096E911C097
:100DF000772321F09EE8872F762F05C0662371F0B8
:100E000096E8862F70E060E02AF09A95660F771FCB
:100E1000881FDAF7880F9695879597F9089597F9BF
:100E20009F6780E870E060E008959FEF80EC089590
:100E300000240A94161617061806090608950024B9
:100E40000A9412161306140605060895092E039433
:100E5000000C11F4882352F0BB0F40F4BF2B11F4A7
:100E600060FF04C06F5F7F4F8F4F9F4F089557FD06
:100E70009058440F551F59F05F3F71F04795880F08
:100E800097FB991F61F09F3F79F08795089512169F
:100E900013061406551FF2CF4695F1DF08C016164B
:100EA00017061806991FF1CF8695710561050894FC
:100EB0000895E894BB2766277727CB0197F9089513
:100EC0000BD0C4CFB5DF28F0BADF18F0952309F0B6
:100ED000A6CFABCF1124EECFCADFA0F3959FD1F3FD
:100EE000950F50E0551F629FF001729FBB27F00DD8
:100EF000B11D639FAA27F00DB11DAA1F649F66272D
:100F0000B00DA11D661F829F2227B00DA11D621F7B
:100F1000739FB00DA11D621F839FA00D611D221F35
:100F2000749F3327A00D611D231F849F600D211D19
:100F3000822F762F6A2F11249F5750408AF0E1F0BC
:100F400088234AF0EE0FFF1FBB1F661F771F881F05
:100F500091505040A9F79E3F510570F060CFAACF45
:100F60005F3FECF3983EDCF3869577956795B795F0
:100F7000F795E7959F5FC1F7FE2B880F911D96951A
:100F8000879597F90895AA1BBB1B51E107C0AA1FBB
:100F9000BB1FA617B70710F0A61BB70B881F991F1A
:100FA0005A95A9F780959095BC01CD0108952F928F
:100FB0003F924F925F926F927F928F929F92AF92E9
:100FC000BF92CF92DF92EF92FF920F931F93CF9336
:100FD000DF93CDB7DEB7CA1BDB0B0FB6F894DEBFCD
:100FE0000FBECDBF09942A88398848885F846E84F3
:100FF0007D848C849B84AA84B984C884DF80EE803D
:10100000FD800C811B81AA81B981CE0FD11D0FB645
:10101000F894DEBF0FBECDBFED010895283008F073
:1010200027E03327DA01990F311D87FD9160009683
:101030006105710539F432602E5F3D9330E32A95E6
:10104000E1F708959F3F30F080387105610509F0A0
:101050003C5F3C5F3D93913008F08068911DDF93C9
:10106000CF931F930F93FF92EF92192F987F96952E
:10107000E92F96959695E90FFF27E653FF4F99279D
:101080003327EE24FF24A701E70105900894079475
:1010900028F4360FE71EF81E491F511D660F771FF3
:1010A000881F991F0694A1F70590079428F4E70E6E
:1010B000F81E491F561FC11D770F881F991F661FF5
:1010C0000694A1F70590079428F4F80E491F561FBF
:1010D000C71FD11D880F991F661F771F0694A1F7A0
:1010E0000590079420F4490F561FC71FD81F990F6A
:1010F000661F771F881F0694A9F7849110951770B3
:1011000041F0D695C79557954795F794E7941A956A
:10111000C1F7E0E7F0E0689415901591359165917D
:10112000959105907FE27395E118F10A430B560BF8
:10113000C90BD009C0F7E10CF11E431F561FC91F90
:10114000D01D7EF4703311F48A95E6CFE8940150F7
:1011500030F0080F0AF40027021708F4202F239517
:10116000022F7A3328F079E37D932A95E9F710C0AE
:101170007D932A9589F606949795679537951795E7
:101180001794E118F10A430B560BC90BD00998F0DC
:1011900023957E9173957A3308F070E37C93201346
:1011A000B8F77E9170617D9330F0839571E37D9304
:1011B00070E32A95E1F71124EF90FF900F911F91B2
:1011C000CF91DF91992787FD90950895FC010590B7
:1011D000615070400110D8F7809590958E0F9F1F39
:1011E0000895FC016150704001900110D8F780957E
:1011F00090958E0F9F1F08950F931F93CF93DF93AA
:101200008C01EB018B8181FF1BC082FF0DC02E8101
:101210003F818C819D812817390764F4E881F98129
:101220000193F983E88306C0E885F985802F099545
:10123000892B31F48E819F8101969F838E8302C01A
:101240000FEF1FEFC801DF91CF911F910F9108950C
:10125000A0E0B0E0EEE2F9E00C94E707FE0135967D
:10126000619171918091240190912501AF010E94BB
:101270007E022096E2E00C9403080F931F93CF9315
:10128000DF938C01E0912401F0912501838181FF9E
:1012900021C0C0E0D0E00DC0E0912401F091250113
:1012A00020853185BF01F9010995892B11F0CFEF18
:1012B000DFEFF80181918F01882371F7E09124011C
:1012C000F0912501208531858AE0BF01F90109955A
:1012D000892B11F0CFEFDFEFCE01DF91CF911F917E
:1012E0000F910895FA01AA27283051F1203181F198
:1012F000E8946F936E7F6E5F7F4F8F4F9F4FAF4F1E
:10130000B1E03ED0B4E03CD0670F781F891F9A1F30
:10131000A11D680F791F8A1F911DA11D6A0F711DE4
:10132000811D911DA11D20D009F468943F912AE0F0
:10133000269F11243019305D3193DEF6CF010895D8
:10134000462F4770405D4193B3E00FD0C9F7F6CF09
:10135000462F4F70405D4A3318F0495D31FD4052D1
:10136000419302D0A9F7EACFB4E0A6959795879567
:1013700077956795BA95C9F7009761057105089546
:101380009B01AC010A2E06945795479537952795F2
:10139000BA95C9F7620F731F841F951FA01D08958A
:0413A000F894FFCFEF
:1013A4006572726F7200252E3266460A00000000D4
:0C13B4000200000000F400000000000037
:00000001FF
